{
	"contracts/calculator.sol": {
		"calculator": {
			"abi": [
				{
					"inputs": [
						{
							"internalType": "uint64",
							"name": "num",
							"type": "uint64"
						}
					],
					"name": "add",
					"outputs": [],
					"stateMutability": "nonpayable",
					"type": "function"
				},
				{
					"inputs": [],
					"name": "get",
					"outputs": [
						{
							"internalType": "uint64",
							"name": "",
							"type": "uint64"
						}
					],
					"stateMutability": "view",
					"type": "function"
				},
				{
					"inputs": [
						{
							"internalType": "uint64",
							"name": "num",
							"type": "uint64"
						}
					],
					"name": "multiply",
					"outputs": [],
					"stateMutability": "nonpayable",
					"type": "function"
				},
				{
					"inputs": [
						{
							"internalType": "uint64",
							"name": "num",
							"type": "uint64"
						}
					],
					"name": "subtract",
					"outputs": [],
					"stateMutability": "nonpayable",
					"type": "function"
				}
			],
			"devdoc": {
				"kind": "dev",
				"methods": {},
				"version": 1
			},
			"evm": {
				"assembly": "    /* \"contracts/calculator.sol\":62:377  contract calculator{... */\n  mstore(0x40, 0x80)\n    /* \"contracts/calculator.sol\":101:102  0 */\n  0x00\n    /* \"contracts/calculator.sol\":86:102  uint64 result =0 */\n  dup1\n  exp(0x0100, 0x00)\n  dup2\n  sload\n  dup2\n  0xffffffffffffffff\n  mul\n  not\n  and\n  swap1\n  dup4\n  0xffffffffffffffff\n  and\n  mul\n  or\n  swap1\n  sstore\n  pop\n    /* \"contracts/calculator.sol\":62:377  contract calculator{... */\n  callvalue\n  dup1\n  iszero\n  tag_1\n  jumpi\n  0x00\n  dup1\n  revert\ntag_1:\n  pop\n  dataSize(sub_0)\n  dup1\n  dataOffset(sub_0)\n  0x00\n  codecopy\n  0x00\n  return\nstop\n\nsub_0: assembly {\n        /* \"contracts/calculator.sol\":62:377  contract calculator{... */\n      mstore(0x40, 0x80)\n      callvalue\n      dup1\n      iszero\n      tag_1\n      jumpi\n      0x00\n      dup1\n      revert\n    tag_1:\n      pop\n      jumpi(tag_2, lt(calldatasize, 0x04))\n      shr(0xe0, calldataload(0x00))\n      dup1\n      0x6d4ce63c\n      eq\n      tag_3\n      jumpi\n      dup1\n      0x7b881196\n      eq\n      tag_4\n      jumpi\n      dup1\n      0xe7fef7d2\n      eq\n      tag_5\n      jumpi\n      dup1\n      0xfeb44a51\n      eq\n      tag_6\n      jumpi\n    tag_2:\n      0x00\n      dup1\n      revert\n        /* \"contracts/calculator.sol\":303:374  function get() public view returns (uint64) {... */\n    tag_3:\n      tag_7\n      tag_8\n      jump\t// in\n    tag_7:\n      mload(0x40)\n      tag_9\n      swap2\n      swap1\n      tag_10\n      jump\t// in\n    tag_9:\n      mload(0x40)\n      dup1\n      swap2\n      sub\n      swap1\n      return\n        /* \"contracts/calculator.sol\":107:165  function add(uint64 num) public {... */\n    tag_4:\n      tag_11\n      0x04\n      dup1\n      calldatasize\n      sub\n      dup2\n      add\n      swap1\n      tag_12\n      swap2\n      swap1\n      tag_13\n      jump\t// in\n    tag_12:\n      tag_14\n      jump\t// in\n    tag_11:\n      stop\n        /* \"contracts/calculator.sol\":235:299  function multiply (uint64 num) public {... */\n    tag_5:\n      tag_15\n      0x04\n      dup1\n      calldatasize\n      sub\n      dup2\n      add\n      swap1\n      tag_16\n      swap2\n      swap1\n      tag_13\n      jump\t// in\n    tag_16:\n      tag_17\n      jump\t// in\n    tag_15:\n      stop\n        /* \"contracts/calculator.sol\":169:231  function subtract (uint64 num) public {... */\n    tag_6:\n      tag_18\n      0x04\n      dup1\n      calldatasize\n      sub\n      dup2\n      add\n      swap1\n      tag_19\n      swap2\n      swap1\n      tag_13\n      jump\t// in\n    tag_19:\n      tag_20\n      jump\t// in\n    tag_18:\n      stop\n        /* \"contracts/calculator.sol\":303:374  function get() public view returns (uint64) {... */\n    tag_8:\n        /* \"contracts/calculator.sol\":339:345  uint64 */\n      0x00\n        /* \"contracts/calculator.sol\":362:368  result */\n      dup1\n      0x00\n      swap1\n      sload\n      swap1\n      0x0100\n      exp\n      swap1\n      div\n      0xffffffffffffffff\n      and\n        /* \"contracts/calculator.sol\":354:368  return  result */\n      swap1\n      pop\n        /* \"contracts/calculator.sol\":303:374  function get() public view returns (uint64) {... */\n      swap1\n      jump\t// out\n        /* \"contracts/calculator.sol\":107:165  function add(uint64 num) public {... */\n    tag_14:\n        /* \"contracts/calculator.sol\":156:159  num */\n      dup1\n        /* \"contracts/calculator.sol\":146:152  result */\n      0x00\n      dup1\n        /* \"contracts/calculator.sol\":146:159  result += num */\n      dup3\n      dup3\n      dup3\n      swap1\n      sload\n      swap1\n      0x0100\n      exp\n      swap1\n      div\n      0xffffffffffffffff\n      and\n      tag_23\n      swap2\n      swap1\n      tag_24\n      jump\t// in\n    tag_23:\n      swap3\n      pop\n      0x0100\n      exp\n      dup2\n      sload\n      dup2\n      0xffffffffffffffff\n      mul\n      not\n      and\n      swap1\n      dup4\n      0xffffffffffffffff\n      and\n      mul\n      or\n      swap1\n      sstore\n      pop\n        /* \"contracts/calculator.sol\":107:165  function add(uint64 num) public {... */\n      pop\n      jump\t// out\n        /* \"contracts/calculator.sol\":235:299  function multiply (uint64 num) public {... */\n    tag_17:\n        /* \"contracts/calculator.sol\":290:293  num */\n      dup1\n        /* \"contracts/calculator.sol\":280:286  result */\n      0x00\n      dup1\n        /* \"contracts/calculator.sol\":280:293  result *= num */\n      dup3\n      dup3\n      dup3\n      swap1\n      sload\n      swap1\n      0x0100\n      exp\n      swap1\n      div\n      0xffffffffffffffff\n      and\n      tag_26\n      swap2\n      swap1\n      tag_27\n      jump\t// in\n    tag_26:\n      swap3\n      pop\n      0x0100\n      exp\n      dup2\n      sload\n      dup2\n      0xffffffffffffffff\n      mul\n      not\n      and\n      swap1\n      dup4\n      0xffffffffffffffff\n      and\n      mul\n      or\n      swap1\n      sstore\n      pop\n        /* \"contracts/calculator.sol\":235:299  function multiply (uint64 num) public {... */\n      pop\n      jump\t// out\n        /* \"contracts/calculator.sol\":169:231  function subtract (uint64 num) public {... */\n    tag_20:\n        /* \"contracts/calculator.sol\":222:225  num */\n      dup1\n        /* \"contracts/calculator.sol\":214:220  result */\n      0x00\n      dup1\n        /* \"contracts/calculator.sol\":214:225  result-=num */\n      dup3\n      dup3\n      dup3\n      swap1\n      sload\n      swap1\n      0x0100\n      exp\n      swap1\n      div\n      0xffffffffffffffff\n      and\n      tag_29\n      swap2\n      swap1\n      tag_30\n      jump\t// in\n    tag_29:\n      swap3\n      pop\n      0x0100\n      exp\n      dup2\n      sload\n      dup2\n      0xffffffffffffffff\n      mul\n      not\n      and\n      swap1\n      dup4\n      0xffffffffffffffff\n      and\n      mul\n      or\n      swap1\n      sstore\n      pop\n        /* \"contracts/calculator.sol\":169:231  function subtract (uint64 num) public {... */\n      pop\n      jump\t// out\n        /* \"#utility.yul\":7:108   */\n    tag_31:\n        /* \"#utility.yul\":43:50   */\n      0x00\n        /* \"#utility.yul\":83:101   */\n      0xffffffffffffffff\n        /* \"#utility.yul\":76:81   */\n      dup3\n        /* \"#utility.yul\":72:102   */\n      and\n        /* \"#utility.yul\":61:102   */\n      swap1\n      pop\n        /* \"#utility.yul\":7:108   */\n      swap2\n      swap1\n      pop\n      jump\t// out\n        /* \"#utility.yul\":114:229   */\n    tag_32:\n        /* \"#utility.yul\":199:222   */\n      tag_42\n        /* \"#utility.yul\":216:221   */\n      dup2\n        /* \"#utility.yul\":199:222   */\n      tag_31\n      jump\t// in\n    tag_42:\n        /* \"#utility.yul\":194:197   */\n      dup3\n        /* \"#utility.yul\":187:223   */\n      mstore\n        /* \"#utility.yul\":114:229   */\n      pop\n      pop\n      jump\t// out\n        /* \"#utility.yul\":235:453   */\n    tag_10:\n        /* \"#utility.yul\":326:330   */\n      0x00\n        /* \"#utility.yul\":364:366   */\n      0x20\n        /* \"#utility.yul\":353:362   */\n      dup3\n        /* \"#utility.yul\":349:367   */\n      add\n        /* \"#utility.yul\":341:367   */\n      swap1\n      pop\n        /* \"#utility.yul\":377:446   */\n      tag_44\n        /* \"#utility.yul\":443:444   */\n      0x00\n        /* \"#utility.yul\":432:441   */\n      dup4\n        /* \"#utility.yul\":428:445   */\n      add\n        /* \"#utility.yul\":419:425   */\n      dup5\n        /* \"#utility.yul\":377:446   */\n      tag_32\n      jump\t// in\n    tag_44:\n        /* \"#utility.yul\":235:453   */\n      swap3\n      swap2\n      pop\n      pop\n      jump\t// out\n        /* \"#utility.yul\":540:657   */\n    tag_34:\n        /* \"#utility.yul\":649:650   */\n      0x00\n        /* \"#utility.yul\":646:647   */\n      dup1\n        /* \"#utility.yul\":639:651   */\n      revert\n        /* \"#utility.yul\":786:906   */\n    tag_36:\n        /* \"#utility.yul\":858:881   */\n      tag_49\n        /* \"#utility.yul\":875:880   */\n      dup2\n        /* \"#utility.yul\":858:881   */\n      tag_31\n      jump\t// in\n    tag_49:\n        /* \"#utility.yul\":851:856   */\n      dup2\n        /* \"#utility.yul\":848:882   */\n      eq\n        /* \"#utility.yul\":838:900   */\n      tag_50\n      jumpi\n        /* \"#utility.yul\":896:897   */\n      0x00\n        /* \"#utility.yul\":893:894   */\n      dup1\n        /* \"#utility.yul\":886:898   */\n      revert\n        /* \"#utility.yul\":838:900   */\n    tag_50:\n        /* \"#utility.yul\":786:906   */\n      pop\n      jump\t// out\n        /* \"#utility.yul\":912:1049   */\n    tag_37:\n        /* \"#utility.yul\":957:962   */\n      0x00\n        /* \"#utility.yul\":995:1001   */\n      dup2\n        /* \"#utility.yul\":982:1002   */\n      calldataload\n        /* \"#utility.yul\":973:1002   */\n      swap1\n      pop\n        /* \"#utility.yul\":1011:1043   */\n      tag_52\n        /* \"#utility.yul\":1037:1042   */\n      dup2\n        /* \"#utility.yul\":1011:1043   */\n      tag_36\n      jump\t// in\n    tag_52:\n        /* \"#utility.yul\":912:1049   */\n      swap3\n      swap2\n      pop\n      pop\n      jump\t// out\n        /* \"#utility.yul\":1055:1382   */\n    tag_13:\n        /* \"#utility.yul\":1113:1119   */\n      0x00\n        /* \"#utility.yul\":1162:1164   */\n      0x20\n        /* \"#utility.yul\":1150:1159   */\n      dup3\n        /* \"#utility.yul\":1141:1148   */\n      dup5\n        /* \"#utility.yul\":1137:1160   */\n      sub\n        /* \"#utility.yul\":1133:1165   */\n      slt\n        /* \"#utility.yul\":1130:1249   */\n      iszero\n      tag_54\n      jumpi\n        /* \"#utility.yul\":1168:1247   */\n      tag_55\n      tag_34\n      jump\t// in\n    tag_55:\n        /* \"#utility.yul\":1130:1249   */\n    tag_54:\n        /* \"#utility.yul\":1288:1289   */\n      0x00\n        /* \"#utility.yul\":1313:1365   */\n      tag_56\n        /* \"#utility.yul\":1357:1364   */\n      dup5\n        /* \"#utility.yul\":1348:1354   */\n      dup3\n        /* \"#utility.yul\":1337:1346   */\n      dup6\n        /* \"#utility.yul\":1333:1355   */\n      add\n        /* \"#utility.yul\":1313:1365   */\n      tag_37\n      jump\t// in\n    tag_56:\n        /* \"#utility.yul\":1303:1365   */\n      swap2\n      pop\n        /* \"#utility.yul\":1259:1375   */\n      pop\n        /* \"#utility.yul\":1055:1382   */\n      swap3\n      swap2\n      pop\n      pop\n      jump\t// out\n        /* \"#utility.yul\":1388:1568   */\n    tag_38:\n        /* \"#utility.yul\":1436:1513   */\n      0x4e487b7100000000000000000000000000000000000000000000000000000000\n        /* \"#utility.yul\":1433:1434   */\n      0x00\n        /* \"#utility.yul\":1426:1514   */\n      mstore\n        /* \"#utility.yul\":1533:1537   */\n      0x11\n        /* \"#utility.yul\":1530:1531   */\n      0x04\n        /* \"#utility.yul\":1523:1538   */\n      mstore\n        /* \"#utility.yul\":1557:1561   */\n      0x24\n        /* \"#utility.yul\":1554:1555   */\n      0x00\n        /* \"#utility.yul\":1547:1562   */\n      revert\n        /* \"#utility.yul\":1574:1779   */\n    tag_24:\n        /* \"#utility.yul\":1613:1616   */\n      0x00\n        /* \"#utility.yul\":1632:1651   */\n      tag_59\n        /* \"#utility.yul\":1649:1650   */\n      dup3\n        /* \"#utility.yul\":1632:1651   */\n      tag_31\n      jump\t// in\n    tag_59:\n        /* \"#utility.yul\":1627:1651   */\n      swap2\n      pop\n        /* \"#utility.yul\":1665:1684   */\n      tag_60\n        /* \"#utility.yul\":1682:1683   */\n      dup4\n        /* \"#utility.yul\":1665:1684   */\n      tag_31\n      jump\t// in\n    tag_60:\n        /* \"#utility.yul\":1660:1684   */\n      swap3\n      pop\n        /* \"#utility.yul\":1707:1708   */\n      dup3\n        /* \"#utility.yul\":1704:1705   */\n      dup3\n        /* \"#utility.yul\":1700:1709   */\n      add\n        /* \"#utility.yul\":1693:1709   */\n      swap1\n      pop\n        /* \"#utility.yul\":1730:1748   */\n      0xffffffffffffffff\n        /* \"#utility.yul\":1725:1728   */\n      dup2\n        /* \"#utility.yul\":1722:1749   */\n      gt\n        /* \"#utility.yul\":1719:1772   */\n      iszero\n      tag_61\n      jumpi\n        /* \"#utility.yul\":1752:1770   */\n      tag_62\n      tag_38\n      jump\t// in\n    tag_62:\n        /* \"#utility.yul\":1719:1772   */\n    tag_61:\n        /* \"#utility.yul\":1574:1779   */\n      swap3\n      swap2\n      pop\n      pop\n      jump\t// out\n        /* \"#utility.yul\":1785:2060   */\n    tag_27:\n        /* \"#utility.yul\":1824:1831   */\n      0x00\n        /* \"#utility.yul\":1847:1866   */\n      tag_64\n        /* \"#utility.yul\":1864:1865   */\n      dup3\n        /* \"#utility.yul\":1847:1866   */\n      tag_31\n      jump\t// in\n    tag_64:\n        /* \"#utility.yul\":1842:1866   */\n      swap2\n      pop\n        /* \"#utility.yul\":1880:1899   */\n      tag_65\n        /* \"#utility.yul\":1897:1898   */\n      dup4\n        /* \"#utility.yul\":1880:1899   */\n      tag_31\n      jump\t// in\n    tag_65:\n        /* \"#utility.yul\":1875:1899   */\n      swap3\n      pop\n        /* \"#utility.yul\":1934:1935   */\n      dup3\n        /* \"#utility.yul\":1931:1932   */\n      dup3\n        /* \"#utility.yul\":1927:1936   */\n      mul\n        /* \"#utility.yul\":1956:1985   */\n      tag_66\n        /* \"#utility.yul\":1973:1984   */\n      dup2\n        /* \"#utility.yul\":1956:1985   */\n      tag_31\n      jump\t// in\n    tag_66:\n        /* \"#utility.yul\":1945:1985   */\n      swap2\n      pop\n        /* \"#utility.yul\":2017:2028   */\n      dup1\n        /* \"#utility.yul\":2008:2015   */\n      dup3\n        /* \"#utility.yul\":2005:2029   */\n      eq\n        /* \"#utility.yul\":1995:2053   */\n      tag_67\n      jumpi\n        /* \"#utility.yul\":2033:2051   */\n      tag_68\n      tag_38\n      jump\t// in\n    tag_68:\n        /* \"#utility.yul\":1995:2053   */\n    tag_67:\n        /* \"#utility.yul\":1832:2060   */\n      pop\n        /* \"#utility.yul\":1785:2060   */\n      swap3\n      swap2\n      pop\n      pop\n      jump\t// out\n        /* \"#utility.yul\":2066:2274   */\n    tag_30:\n        /* \"#utility.yul\":2105:2109   */\n      0x00\n        /* \"#utility.yul\":2125:2144   */\n      tag_70\n        /* \"#utility.yul\":2142:2143   */\n      dup3\n        /* \"#utility.yul\":2125:2144   */\n      tag_31\n      jump\t// in\n    tag_70:\n        /* \"#utility.yul\":2120:2144   */\n      swap2\n      pop\n        /* \"#utility.yul\":2158:2177   */\n      tag_71\n        /* \"#utility.yul\":2175:2176   */\n      dup4\n        /* \"#utility.yul\":2158:2177   */\n      tag_31\n      jump\t// in\n    tag_71:\n        /* \"#utility.yul\":2153:2177   */\n      swap3\n      pop\n        /* \"#utility.yul\":2201:2202   */\n      dup3\n        /* \"#utility.yul\":2198:2199   */\n      dup3\n        /* \"#utility.yul\":2194:2203   */\n      sub\n        /* \"#utility.yul\":2186:2203   */\n      swap1\n      pop\n        /* \"#utility.yul\":2225:2243   */\n      0xffffffffffffffff\n        /* \"#utility.yul\":2219:2223   */\n      dup2\n        /* \"#utility.yul\":2216:2244   */\n      gt\n        /* \"#utility.yul\":2213:2267   */\n      iszero\n      tag_72\n      jumpi\n        /* \"#utility.yul\":2247:2265   */\n      tag_73\n      tag_38\n      jump\t// in\n    tag_73:\n        /* \"#utility.yul\":2213:2267   */\n    tag_72:\n        /* \"#utility.yul\":2066:2274   */\n      swap3\n      swap2\n      pop\n      pop\n      jump\t// out\n\n    auxdata: 0xa2646970667358221220f8c06d77874e3188df67d77d6e762ba5de70d406ed83035ce198c3bd8f621cbd64736f6c634300081a0033\n}\n",
				"bytecode": {
					"linkReferences": {},
					"object": "60806040525f805f6101000a81548167ffffffffffffffff021916908367ffffffffffffffff1602179055503480156035575f80fd5b50610368806100435f395ff3fe608060405234801561000f575f80fd5b506004361061004a575f3560e01c80636d4ce63c1461004e5780637b8811961461006c578063e7fef7d214610088578063feb44a51146100a4575b5f80fd5b6100566100c0565b60405161006391906101e1565b60405180910390f35b61008660048036038101906100819190610228565b6100db565b005b6100a2600480360381019061009d9190610228565b610127565b005b6100be60048036038101906100b99190610228565b610173565b005b5f805f9054906101000a900467ffffffffffffffff16905090565b805f808282829054906101000a900467ffffffffffffffff166100fe9190610280565b92506101000a81548167ffffffffffffffff021916908367ffffffffffffffff16021790555050565b805f808282829054906101000a900467ffffffffffffffff1661014a91906102bb565b92506101000a81548167ffffffffffffffff021916908367ffffffffffffffff16021790555050565b805f808282829054906101000a900467ffffffffffffffff1661019691906102f7565b92506101000a81548167ffffffffffffffff021916908367ffffffffffffffff16021790555050565b5f67ffffffffffffffff82169050919050565b6101db816101bf565b82525050565b5f6020820190506101f45f8301846101d2565b92915050565b5f80fd5b610207816101bf565b8114610211575f80fd5b50565b5f81359050610222816101fe565b92915050565b5f6020828403121561023d5761023c6101fa565b5b5f61024a84828501610214565b91505092915050565b7f4e487b71000000000000000000000000000000000000000000000000000000005f52601160045260245ffd5b5f61028a826101bf565b9150610295836101bf565b9250828201905067ffffffffffffffff8111156102b5576102b4610253565b5b92915050565b5f6102c5826101bf565b91506102d0836101bf565b92508282026102de816101bf565b91508082146102f0576102ef610253565b5b5092915050565b5f610301826101bf565b915061030c836101bf565b9250828203905067ffffffffffffffff81111561032c5761032b610253565b5b9291505056fea2646970667358221220f8c06d77874e3188df67d77d6e762ba5de70d406ed83035ce198c3bd8f621cbd64736f6c634300081a0033",
					"opcodes": "PUSH1 0x80 PUSH1 0x40 MSTORE PUSH0 DUP1 PUSH0 PUSH2 0x100 EXP DUP2 SLOAD DUP2 PUSH8 0xFFFFFFFFFFFFFFFF MUL NOT AND SWAP1 DUP4 PUSH8 0xFFFFFFFFFFFFFFFF AND MUL OR SWAP1 SSTORE POP CALLVALUE DUP1 ISZERO PUSH1 0x35 JUMPI PUSH0 DUP1 REVERT JUMPDEST POP PUSH2 0x368 DUP1 PUSH2 0x43 PUSH0 CODECOPY PUSH0 RETURN INVALID PUSH1 0x80 PUSH1 0x40 MSTORE CALLVALUE DUP1 ISZERO PUSH2 0xF JUMPI PUSH0 DUP1 REVERT JUMPDEST POP PUSH1 0x4 CALLDATASIZE LT PUSH2 0x4A JUMPI PUSH0 CALLDATALOAD PUSH1 0xE0 SHR DUP1 PUSH4 0x6D4CE63C EQ PUSH2 0x4E JUMPI DUP1 PUSH4 0x7B881196 EQ PUSH2 0x6C JUMPI DUP1 PUSH4 0xE7FEF7D2 EQ PUSH2 0x88 JUMPI DUP1 PUSH4 0xFEB44A51 EQ PUSH2 0xA4 JUMPI JUMPDEST PUSH0 DUP1 REVERT JUMPDEST PUSH2 0x56 PUSH2 0xC0 JUMP JUMPDEST PUSH1 0x40 MLOAD PUSH2 0x63 SWAP2 SWAP1 PUSH2 0x1E1 JUMP JUMPDEST PUSH1 0x40 MLOAD DUP1 SWAP2 SUB SWAP1 RETURN JUMPDEST PUSH2 0x86 PUSH1 0x4 DUP1 CALLDATASIZE SUB DUP2 ADD SWAP1 PUSH2 0x81 SWAP2 SWAP1 PUSH2 0x228 JUMP JUMPDEST PUSH2 0xDB JUMP JUMPDEST STOP JUMPDEST PUSH2 0xA2 PUSH1 0x4 DUP1 CALLDATASIZE SUB DUP2 ADD SWAP1 PUSH2 0x9D SWAP2 SWAP1 PUSH2 0x228 JUMP JUMPDEST PUSH2 0x127 JUMP JUMPDEST STOP JUMPDEST PUSH2 0xBE PUSH1 0x4 DUP1 CALLDATASIZE SUB DUP2 ADD SWAP1 PUSH2 0xB9 SWAP2 SWAP1 PUSH2 0x228 JUMP JUMPDEST PUSH2 0x173 JUMP JUMPDEST STOP JUMPDEST PUSH0 DUP1 PUSH0 SWAP1 SLOAD SWAP1 PUSH2 0x100 EXP SWAP1 DIV PUSH8 0xFFFFFFFFFFFFFFFF AND SWAP1 POP SWAP1 JUMP JUMPDEST DUP1 PUSH0 DUP1 DUP3 DUP3 DUP3 SWAP1 SLOAD SWAP1 PUSH2 0x100 EXP SWAP1 DIV PUSH8 0xFFFFFFFFFFFFFFFF AND PUSH2 0xFE SWAP2 SWAP1 PUSH2 0x280 JUMP JUMPDEST SWAP3 POP PUSH2 0x100 EXP DUP2 SLOAD DUP2 PUSH8 0xFFFFFFFFFFFFFFFF MUL NOT AND SWAP1 DUP4 PUSH8 0xFFFFFFFFFFFFFFFF AND MUL OR SWAP1 SSTORE POP POP JUMP JUMPDEST DUP1 PUSH0 DUP1 DUP3 DUP3 DUP3 SWAP1 SLOAD SWAP1 PUSH2 0x100 EXP SWAP1 DIV PUSH8 0xFFFFFFFFFFFFFFFF AND PUSH2 0x14A SWAP2 SWAP1 PUSH2 0x2BB JUMP JUMPDEST SWAP3 POP PUSH2 0x100 EXP DUP2 SLOAD DUP2 PUSH8 0xFFFFFFFFFFFFFFFF MUL NOT AND SWAP1 DUP4 PUSH8 0xFFFFFFFFFFFFFFFF AND MUL OR SWAP1 SSTORE POP POP JUMP JUMPDEST DUP1 PUSH0 DUP1 DUP3 DUP3 DUP3 SWAP1 SLOAD SWAP1 PUSH2 0x100 EXP SWAP1 DIV PUSH8 0xFFFFFFFFFFFFFFFF AND PUSH2 0x196 SWAP2 SWAP1 PUSH2 0x2F7 JUMP JUMPDEST SWAP3 POP PUSH2 0x100 EXP DUP2 SLOAD DUP2 PUSH8 0xFFFFFFFFFFFFFFFF MUL NOT AND SWAP1 DUP4 PUSH8 0xFFFFFFFFFFFFFFFF AND MUL OR SWAP1 SSTORE POP POP JUMP JUMPDEST PUSH0 PUSH8 0xFFFFFFFFFFFFFFFF DUP3 AND SWAP1 POP SWAP2 SWAP1 POP JUMP JUMPDEST PUSH2 0x1DB DUP2 PUSH2 0x1BF JUMP JUMPDEST DUP3 MSTORE POP POP JUMP JUMPDEST PUSH0 PUSH1 0x20 DUP3 ADD SWAP1 POP PUSH2 0x1F4 PUSH0 DUP4 ADD DUP5 PUSH2 0x1D2 JUMP JUMPDEST SWAP3 SWAP2 POP POP JUMP JUMPDEST PUSH0 DUP1 REVERT JUMPDEST PUSH2 0x207 DUP2 PUSH2 0x1BF JUMP JUMPDEST DUP2 EQ PUSH2 0x211 JUMPI PUSH0 DUP1 REVERT JUMPDEST POP JUMP JUMPDEST PUSH0 DUP2 CALLDATALOAD SWAP1 POP PUSH2 0x222 DUP2 PUSH2 0x1FE JUMP JUMPDEST SWAP3 SWAP2 POP POP JUMP JUMPDEST PUSH0 PUSH1 0x20 DUP3 DUP5 SUB SLT ISZERO PUSH2 0x23D JUMPI PUSH2 0x23C PUSH2 0x1FA JUMP JUMPDEST JUMPDEST PUSH0 PUSH2 0x24A DUP5 DUP3 DUP6 ADD PUSH2 0x214 JUMP JUMPDEST SWAP2 POP POP SWAP3 SWAP2 POP POP JUMP JUMPDEST PUSH32 0x4E487B7100000000000000000000000000000000000000000000000000000000 PUSH0 MSTORE PUSH1 0x11 PUSH1 0x4 MSTORE PUSH1 0x24 PUSH0 REVERT JUMPDEST PUSH0 PUSH2 0x28A DUP3 PUSH2 0x1BF JUMP JUMPDEST SWAP2 POP PUSH2 0x295 DUP4 PUSH2 0x1BF JUMP JUMPDEST SWAP3 POP DUP3 DUP3 ADD SWAP1 POP PUSH8 0xFFFFFFFFFFFFFFFF DUP2 GT ISZERO PUSH2 0x2B5 JUMPI PUSH2 0x2B4 PUSH2 0x253 JUMP JUMPDEST JUMPDEST SWAP3 SWAP2 POP POP JUMP JUMPDEST PUSH0 PUSH2 0x2C5 DUP3 PUSH2 0x1BF JUMP JUMPDEST SWAP2 POP PUSH2 0x2D0 DUP4 PUSH2 0x1BF JUMP JUMPDEST SWAP3 POP DUP3 DUP3 MUL PUSH2 0x2DE DUP2 PUSH2 0x1BF JUMP JUMPDEST SWAP2 POP DUP1 DUP3 EQ PUSH2 0x2F0 JUMPI PUSH2 0x2EF PUSH2 0x253 JUMP JUMPDEST JUMPDEST POP SWAP3 SWAP2 POP POP JUMP JUMPDEST PUSH0 PUSH2 0x301 DUP3 PUSH2 0x1BF JUMP JUMPDEST SWAP2 POP PUSH2 0x30C DUP4 PUSH2 0x1BF JUMP JUMPDEST SWAP3 POP DUP3 DUP3 SUB SWAP1 POP PUSH8 0xFFFFFFFFFFFFFFFF DUP2 GT ISZERO PUSH2 0x32C JUMPI PUSH2 0x32B PUSH2 0x253 JUMP JUMPDEST JUMPDEST SWAP3 SWAP2 POP POP JUMP INVALID LOG2 PUSH5 0x6970667358 0x22 SLT KECCAK256 0xF8 0xC0 PUSH14 0x77874E3188DF67D77D6E762BA5DE PUSH17 0xD406ED83035CE198C3BD8F621CBD64736F PUSH13 0x634300081A0033000000000000 "
				},
				"gasEstimates": {
					"creation": {
						"codeDepositCost": "174400",
						"executionCost": "24483",
						"totalCost": "198883"
					},
					"external": {
						"add(uint64)": "infinite",
						"get()": "2451",
						"multiply(uint64)": "infinite",
						"subtract(uint64)": "infinite"
					}
				},
				"methodIdentifiers": {
					"add(uint64)": "7b881196",
					"get()": "6d4ce63c",
					"multiply(uint64)": "e7fef7d2",
					"subtract(uint64)": "feb44a51"
				}
			},
			"storageLayout": {
				"storage": [
					{
						"astId": 4,
						"contract": "contracts/calculator.sol:calculator",
						"label": "result",
						"offset": 0,
						"slot": "0",
						"type": "t_uint64"
					}
				],
				"types": {
					"t_uint64": {
						"encoding": "inplace",
						"label": "uint64",
						"numberOfBytes": "8"
					}
				}
			},
			"userdoc": {
				"kind": "user",
				"methods": {},
				"version": 1
			}
		}
	}
}